S010000063636C5F746573742E73726563C3
S1130000A82000202D010000290100002901000082
S113001000000000000000000000000000000000DC
S113002000000000000000000000000029010000A2
S11300300000000000000000290100002901000068
S11300402901000029010000290100002901000004
S113005029010000290100002901000029010000F4
S113006029010000290100002901000029010000E4
S113007029010000290100002901000029010000D4
S113008029010000290100002901000029010000C4
S113009029010000290100002901000029010000B4
S11300A029010000290100002901000029010000A4
S11300B00000000010B5064C2378002B07D1054B37
S11300C0002B02D0044800E000BF0123237010BDC0
S11300D0640000200000000034140000084B10B538
S11300E0002B03D00749084800E000BF0748036815
S11300F0002B00D110BD064B002BFBD09847F9E72D
S113010000000000680000203414000034140000D3
S11301100000000010B5024B9847024B984710BDF1
S1130120B5020000B5090000FEE7000010B5124A50
S1130130124B9A4209D0114B0F4A03E0116819601F
S1130140043304320E498B42F8D30E4B02E00022F2
S11301501A6004330C4A9342F9D30C4AFF210C4B26
S11301608B4393600B4A516880230B4353600A4BC3
S113017098470A4B9847FEE734140000000000201B
S11301806400002064000020A400002000ED00E0D2
S11301900000000000400041ED0A0000910800004A
S11301A030B5104BC622995C0124A14301200143C0
S11301B0C9B29954133A995C0F25A94308252943D8
S11301C0C9B29954C9215A5CA2430243D2B25A54C7
S11301D0B4201A5CBA391140802252420A43D2B286
S11301E01A5430BD00280040054A136A80210B438D
S11301F01362403984235B00024AD1507047C046E1
S1130200000400400018004010B5034B9847034B0E
S11302109847034B984710BDE901000045050000CD
S1130220A101000030B50F4B4422995C0125A9437C
S113023001242143C9B299543220195C353A9143BF
S113024003221143C9B2195445215A5CAA432243DB
S1130250D2B25A541A5C36390A4030210A43D2B217
S11302601A5430BD00280040064B4021C822995042
S11302700331043A9950044AD36942390B43D36198
S11302807047C046001800400004004010B5054BFC
S1130290984700228421C9050348044B9847044B1E
S11302A0984710BD69020000940000208D040000EE
S11302B02502000070B5134B9847C022D205802355
S11302C05B0193619360104B10499962C02424062A
S11302D09C624C25595D0120814359558021C900F8
S11302E04C355151103D5151A822094999509C5007
S11302F0CA215A5C82435A54064B9847064B984786
S113030070BDC046D1050000002800400010004028
S113031000040040090200008D02000010B5044BE7
S11303201C68044B984701002000034B984710BDFC
S113033080000020A9050000C905000070B5040074
S11303400D00160000280ED000290AD00120342206
S11303500649074B98472368320029002000984734
S113036070BD0020F3E70020F1E7C0460013000051
S11303700505000070B504000D00160000280ED01D
S113038000290AD001203D220649074B984763689B
S1130390320029002000984770BD0020F3E70020B8
S11303A0F1E7C0460013000005050000F8B505009C
S11303B00E001700002823D0002923D0002A23D1BF
S11303C00020F1221149124B98472C0008342000D8
S11303D0104B98470028F8D00025715D20000E4B83
S11303E0984720000B4B98470028FAD00135BD42AE
S11303F0F3D32000094B98470028FAD02800F8BD11
S11304000020DEE70020DCE70120DAE71413000017
S1130410050500006F0800005F080000790800006F
S1130420F8B5CE46474680B5051E884691461FD08E
S113043000291FD0002A1FD10020862252000F4914
S11304400F4B984700262C00083420000D4B98478A
S11304500028F8D043469F1920000B4B984738706A
S113046001364E45EFD330000CBC90469946F8BD9A
S11304700020E2E70020E0E70120DEE7141300009B
S113048005050000850800006708000070B5040039
S11304900D00002814D0002910D00120342209496D
S11304A0094B9847200008302900084B984700283A
S11304B003D1074B6360074B236070BD0020EDE759
S11304C00020EBE7141300000505000021080000DC
S11304D021040000AD03000010B50400431E984140
S11304E0C0B253220449054B984720000830044BFE
S11304F09847002010BDC0461413000005050000F5
S11305004D080000002800D100BE70470300064AD1
S11305101268002A04D0044A1068C3181360704794
S11305200249014A1160F6E784000020A820002057
S113053001204042704780239B014B60002070479C
S113054000207047114B00221A7001321A700023E8
S113055007E00F4AD218117C0C4A9A181171013322
S1130560DBB2012BF5D9002308E09900084A88582A
S11305709A1C9200054950500133DBB2032BF4D985
S11305800022024B1A7000207047C046001C004332
S113059030130000034A137802210B43DBB21370BB
S11305A000207047001C004310B50300C820400021
S11305B0584302300321034B984783001B1858000B
S11305C010BDC046D50900000139FDD870470000B0
S11305D010B5094B5A685A600220084B9847084BDB
S11305E09847084B9847084B9847084B9847FF2073
S11305F0074B984710BDC04600400041A3060000C9
S11306004D0600006906000039060000A10600003E
S113061015060000C30707D5044A054B1A62044BAC
S11306205A68044B1A42FAD17047C04606010100C9
S113063000180040FD070000034B08229A71043A99
S11306405A71033A1A71704700040040054AD3698D
S11306501B0A1B02F82149010B40D36101231361DA
S11306607047C0460010004082220C4B1A75382394
S11306700A4AD35C9B07FAD4084BDB68DB06FBD53C
S1130680064A137D802149420B43DBB2137538239C
S1130690024AD25C2A3B1A42F9D17047000C00404E
S11306A070478023DB059B780322134098420ED0C9
S11306B08022D205FF239371937803218B43084052
S11306C0184390708023DB059B79002BFAD0704788
S11306D0054B984206D0BE231B069C466044800A04
S11306E0C0B270470520FCE70004004310B50B4B73
S11306F0984702000020002806D0094A0949002032
S1130700094B9847002010BD83001B189900074B24
S1130710CB5C9A42F7D00130C0B2ECE7D1060000BE
S11307203D0200009413000005050000441300007E
S113073070B50400384B9847E369DB071DD4830088
S11307401B189A00354B9B185A681C231A40E369FE
S11307509B07FCD123689B0709D5236802218B439F
S11307602360E3699B07FCD1E3699B07FCD4012365
S113077013432360E3699B07FCD1E369DB07FCD4E3
S113078083001B189A00254B9B185B682360E36960
S11307909B07FCD183001B189A00204B9B189B6875
S11307A06360E3695B07FCD183001B189A001B4B51
S11307B09B185B689A040BD4C022D201134207D160
S11307C083001B189A00154B9B189B89A38115E085
S11307D083001B189A00114989188A89A389D204B5
S11307E0D20C5B0B5B031343A3818B7B07221A4060
S11307F0A3895203DB04DB0C1343A381074A830060
S11308001D18A9000D005118C97BA1735219127C3F
S11308103023E254002070BDED06000044130000B4
S113082070B505000C00431E9841C0B2B4220449BF
S1130830044B98472C602000034B984770BDC0467A
S113084094130000050500003107000002681368D6
S113085002210B431360D3699B07FCD170470368E3
S113086089B2198570470368188DC0B27047036850
S1130870187E01231840704703681B7E5B08012023
S11308801840704703681B7E9B080120184070477E
S113089010B5144B9847144B984700240BE0802262
S11308A05201C023DB055A6113E08021C90094235F
S11308B0C022D205D150FA2080000C4B9847012366
S11308C05C40E4B2002CEAD080225201C023DB0554
S11308D09A61002CE9D08021C9009823C022D20556
S11308E0D150E8E715010000950500001D03000044
S11308F010B50B00002809D111001800054B9847CA
S1130900002800DB10BD01204042FBE701204042EB
S1130910F8E7C0466D09000010B50B000138022845
S113092009D811001800054B9847002800DB10BDBA
S113093001204042FBE701204042F8E79109000012
S113094070B50600064D2B6898680021054CA04739
S11309502B6858680021A047034B1E6070BDC04639
S113096000000020450B00008800002010B50400A2
S1130970054B1868002804D08AB22100034B98471D
S113098010BD0020FCE7C04688000020750300006D
S113099010B50400054B1868002804D08AB2210061
S11309A0034B984710BD0020FCE7C0468800002098
S11309B03D03000010B5044C2000044B9847200070
S11309C0034B984710BDC04694000020D904000092
S11309D041090000002243088B4274D303098B426F
S11309E05FD3030A8B4244D3030B8B4228D3030CFB
S11309F08B420DD3FF22090212BA030C8B4202D39D
S1130A001212090265D0030B8B4219D300E0090AC4
S1130A10C30B8B4201D3CB03C01A5241830B8B42CD
S1130A2001D38B03C01A5241430B8B4201D34B03B6
S1130A30C01A5241030B8B4201D30B03C01A52411B
S1130A40C30A8B4201D3CB02C01A5241830A8B42A0
S1130A5001D38B02C01A5241430A8B4201D34B0289
S1130A60C01A5241030A8B4201D30B02C01A5241ED
S1130A70CDD2C3098B4201D3CB01C01A52418309A1
S1130A808B4201D38B01C01A524143098B4201D3DB
S1130A904B01C01A524103098B4201D30B01C01A06
S1130AA05241C3088B4201D3CB00C01A5241830880
S1130AB08B4201D38B00C01A524143088B4201D3AD
S1130AC04B00C01A5241411A00D20146524110460D
S1130AD07047FFE701B5002000F006F802BDC046EC
S1130AE00029F7D076E770477047C04670B50026F6
S1130AF00C4D0D4C641BA410A64209D1002600F035
S1130B0089FC0A4D0A4C641BA410A64205D170BD91
S1130B10B300EB5898470136EEE7B300EB5898471B
S1130B200136F2E720140000201400002014000015
S1130B302414000003008218934200D170471970F6
S1130B400133F9E74A424A41802310B55200DB00E1
S1130B5000F002F810BD0000F0B51D004F4B85B049
S1130B601E6804000F000092002E05D0B369002B0C
S1130B7002D1300000F094F9494B9C4250D1746882
S1130B80009B022B05D0012B00D984E0002D00DA54
S1130B9081E02100300000F015F9616B002908D0D4
S1130BA023004433994202D0300000F041FA00237C
S1130BB063630023A3616360A3891B0603D52169D2
S1130BC0300000F035FAA389364A1340A381009B14
S1130BD0022B5AD003AB02AA2100300000F0F6F930
S1130BE0A3891843A081002D24D1029D280000F080
S1130BF015FA0195071E42D1029B0193AB4239D1EC
S1130C00012040420223A2891343A3810023A3604D
S1130C1023004733236023610123636105B0F0BDE2
S1130C20214B9C4201D1B468AAE7204B9C42A7D136
S1130C30F468A5E7002FD9D0B369002B02D13000A6
S1130C4000F02EF9009B012B03D1A389009A1A43CB
S1130C50A2810820A389276027616561184018D004
S1130C60012018400023984211D06D42A360A56171
S1130C701800D3E7019800F0D1F9071EC0D08023F3
S1130C80A289019D1343A381D6E70020BAE7A5609A
S1130C90C4E7A060C2E701204042BFE70000002093
S1130CA0D41300005CF3FFFFF4130000B41300003E
S1130CB0F7B58A8905000C00130760D44B68002B34
S1130CC004DC0B6C002B01DC0020FEBDE76A002F66
S1130CD0FAD000232E682B6080235B011A4034D0A5
S1130CE0606DA3895B0706D56368C01A636B002B2C
S1130CF001D0236CC01A0200216A00232800E76A8D
S1130D00B847A189431C06D12B681D2B31D82C4A26
S1130D10DA40D3072DD50023636023692360CB0415
S1130D2005D5431C02D12B68002B00D16065616B93
S1130D302E600029C8D023004433994202D02800F1
S1130D4000F076F900206063BFE70123216A2800E0
S1130D50B847431CC5D12B68002BC2D01D2B01D032
S1130D60162B01D12E60AFE74023A2891343A38140
S1130D70ABE740230B430120A3814042A5E70F6961
S1130D80002FA1D00B680F60DB1B01930023920797
S1130D9000D14B69A360019B002B00DC94E7019B0D
S1130DA03A00216A2800A66AB047002803DC4023E1
S1130DB0A2891343DFE7019B3F181B1A0193EAE75B
S1130DC0010040200B6970B505000C00002B01D117
S1130DD0002070BD002804D08369002B01D100F0ED
S1130DE05FF80B4B9C4209D16C680C22A35E002B6C
S1130DF0EED021002800FFF75BFFEAE7054B9C4299
S1130E0001D1AC68F1E7044B9C42EED1EC68ECE70D
S1130E10D4130000F4130000B413000010B5024909
S1130E2000F0B2F810BDC046C50D0000002310B597
S1130E30040003604360836081814366C28103616F
S1130E4043618361190008225C30FFF773FE054B90
S1130E5024626362044BA362044BE362044B236386
S1130E6010BDC046A5110000CD1100000512000000
S1130E703112000070B568254A1E55430E00290042
S1130E80743100F01FF9041E08D000212A0001600B
S1130E9046600C30A0606832FFF74CFE200070BD45
S1130EA0836913B50400002B28D18364C3640365EC
S1130EB0134B144A1B6882620193984201D10123A7
S1130EC08361200000F020F86060200000F01CF82E
S1130ED0A060200000F018F80022E060042160689F
S1130EE0FFF7A4FF01220921A068FFF79FFF022258
S1130EF01221E068FFF79AFF0123A36113BDC046E6
S1130F00B01300001D0E0000F8B51E4B07001E684C
S1130F10B369002B02D13000FFF7C2FF4836B46832
S1130F207368013B04D53368002B07D03668F6E7B5
S1130F300C22A55E002D0DD06834F2E704213800A0
S1130F40FFF798FF30600028F0D10C2304003B60C9
S1130F502000F8BD012320005B42E3810233A3811A
S1130F6065662560A560656025616561A5610822E7
S1130F7029005C30FFF7DEFD6563A563A564E564C5
S1130F80E6E7C046B0130000F7B5040007000026EA
S1130F9001914834002C01D13000FEBD6368A5687E
S1130FA00093009B013B009301D52468F2E7AB89D1
S1130FB0012B08D90E22AB5E013304D0290038007E
S1130FC0019B984706436835EBE7000070B50E00B7
S1130FD01D000E23C95E90B01400002907DA002317
S1130FE02B60B3891B0611D48023DB000FE001AA18
S1130FF000F04AF90028F2DBF022029B12021340AF
S1131000054A9B185A4253412B60EDE740230020C8
S1131010236010B070BDC04600E0FFFF10B5034B65
S11310200100186800F04EF810BDC0460000002012
S113103070B50500002910D00C1F2368002B00DABE
S1131040E418280000F046F91D4A1368002B05D166
S113105063601460280000F03EF970BDA34209D912
S1131060216860188342F3D118685B6841182160D5
S1131070EEE713005A68002A01D0A242F9D9196890
S11310805818A0420BD120680918581819608242D8
S1131090E0D110685268411819605A60DAE7A0423A
S11310A002D90C232B60D5E721686018824203D152
S11310B0106852684118216062605C60CAE7C046EB
S11310C08C000020032370B5CD1C9D430835060019
S11310D00C2D1ED20C25A9421DD8300000F0FAF8C0
S11310E0254A14682100002919D1244C2368002BB7
S11310F003D1300000F044F820602900300000F0F3
S11311003FF8431C2CD10C233000336000F0E3F88B
S113111003E0002DDFDA0C233360002070BD0B6880
S11311205B1B1AD40B2B03D90B60CC18256003E08E
S11311308C420ED163681360300000F0CCF82000BC
S113114007220B30231D9043C31AE7D05A42E250C2
S1131150E4E74B6863600C00EEE70C004968C2E703
S11311600323C41C9C43A042E0D0211A300000F0A9
S113117007F8431CDAD1C6E78C0000209000002059
S1131180002370B5064C050008002360FFF7BEF984
S1131190431C03D12368002B00D02B6070BDC046D4
S11311A0A000002070B50C000E25495F00F094F8F3
S11311B0002803DB636D1B18636570BDA389024AB5
S11311C01340A381F9E7C046FFEFFFFFF8B51F0006
S11311D08B8905000C001600DB0505D50E23C95EBE
S11311E00022022300F062F8A389054A2800134074
S11311F0A38132000E23E15E3B0000F01FF8F8BD2E
S1131200FFEFFFFF70B50C000E25495F00F04EF8AC
S1131210A389421C03D1054A1340A38170BD8022D7
S113122052011343A3816065F8E7C046FFEFFFFF57
S113123010B50E23C95E00F015F810BD70B5050099
S1131240080011000022064C22601A00FFF764FB1C
S1131250431C03D12368002B00D02B6070BDC04613
S1131260A0000020002370B5064C05000800236090
S1131270FFF75EF9431C03D12368002B00D02B60D9
S113128070BDC046A0000020002370B5064C0500C8
S1131290080011002360FFF74EF9431C03D12368B3
S11312A0002B00D02B6070BDA000002070B505009D
S11312B0080011000022064C22601A00FFF740F9D2
S11312C0431C03D12368002B00D02B6070BDC046A3
S11312D0A00000207047704770B505000800110099
S11312E00022064C22601A00FFF702FB431C03D1C4
S11312F02368002B00D02B6070BDC046A0000020E6
S11313002E2E2F68616C2F7372632F68616C5F6976
S11313106F2E63002E2E2F68616C2F7372632F68FB
S1131320616C5F75736172745F73796E632E6300B1
S113133000440400004404000204000100440400CA
S11313400000000000000000040010400000030042
S1131350098A0000000000000000000000000000F6
S11313600000000000000000000000000000000079
S11313700000000000000000000000000000000069
S11313800000000000000000000000000000000059
S1131390000000002E2E2F68706C2F736572636F2F
S11313A06D2F68706C5F736572636F6D2E630000E0
S11313B00400002000000000000000000000000005
S11313C00000000000000000000000000000000019
S11313D00000000000000000000000000000000009
S11313E000000000000000000000000000000000F9
S11313F000000000000000000000000000000000E9
S113140000000000000000000000000000000000D8
S113141000000000F8B5C046F8BC08BC9E46704702
S1131420DD000000F8B5C046F8BC08BC9E46704715
S1071430B5000000FF
S11314340400002000000000D4130000F413000092
S1131444B4130000000000000000000000000000CD
S11314540000000000000000000000000000000084
S11314640000000000000000000000000000000074
S11314740000000000000000000000000000000064
S11314840000000000000000000000000000000054
S10714940000000050
S9030000FC
